:020000040800F2
:10000000980600208901000891010008930100086A
:100010009501000897010008990100080000000000
:100020000000000000000000000000009B0100082C
:100030009D010008000000009F010008A1010008C8
:10004000A3010008A3010008A3010008A301000800
:10005000A3010008A3010008A3010008A3010008F0
:10006000A3010008A3010008A3010008A3010008E0
:10007000A3010008A3010008A3010008A3010008D0
:10008000A3010008A3010008A3010008A3010008C0
:10009000A3010008A3010008A3010008A3010008B0
:1000A000A3010008A3010008A3010008A3010008A0
:1000B000A3010008A3010008A3010008A301000890
:1000C000A3010008A3010008A3010008A301000880
:1000D000A3010008A3010008A3010008A301000870
:1000E000A3010008A3010008A301000800F002F822
:1000F00000F03AF80AA090E8000C82448344AAF188
:100100000107DA4501D100F02FF8AFF2090EBAE885
:100110000F0013F0010F18BFFB1A43F0010318473B
:10012000000E0000200E0000103A24BF78C878C1ED
:10013000FAD8520724BF30C830C144BF04680C60ED
:10014000704700000023002400250026103A28BF35
:1001500078C1FBD8520728BF30C148BF0B60704739
:100160001FB51FBD10B510BD00F031F81146FFF7E7
:10017000F7FF00F0CDFA00F04FF803B4FFF7F2FFFD
:1001800003BC00F057F800000948804709480047C1
:10019000FEE7FEE7FEE7FEE7FEE7FEE7FEE7FEE737
:1001A000FEE7FEE704480549054A064B7047000094
:1001B000FD050008ED0000089800002098060020CA
:1001C00098020020980200207047704770477546DB
:1001D00000F02CF8AE4605006946534620F00700B3
:1001E000854618B020B5FFF7DDFFBDE820404FF091
:1001F00000064FF000074FF000084FF0000BAC4630
:10020000ACE8C009ACE8C009ACE8C009ACE8C0097A
:1002100021F007018D46704710B50446AFF300800A
:100220002046BDE81040FFF7A8BF00000048704717
:100230003800002001491820ABBEFEE7260002006E
:100240007047000041F21801C4F20201086840F052
:1002500004000860086840F00800086040F60041AB
:10026000C4F201014FF033300860704741F20400DE
:10027000C4F20200006800F00C00082814D1FFE767
:1002800041F20401C4F20201086820F00300086092
:10029000FFE741F20400C4F20200006810F00C0F06
:1002A00001D0FFE7F5E7FFE741F20001C4F20201E8
:1002B000086820F080700860FFE741F20000C4F297
:1002C000020000688001002801D5FFE7F5E741F250
:1002D0000401C4F20201086820F480300860086854
:1002E0004FF47010086041F20001C4F20201086886
:1002F00040F080700860FFE741F20000C4F20200A5
:1003000000688001002801D4FFE7F5E741F204010D
:10031000C4F20201086840F002000860FFE741F201
:100320000400C4F20200006800F00C00082801D0AC
:10033000FFE7F4E77047000041F21801C4F2020140
:10034000086840F604021043086040F60401C4F255
:100350000101086840F003000860086840F00800E8
:100360000860086820F004000860086840F4405005
:100370000860086840F400400860086820F4804085
:10038000086042F62841C4F2010140F2C62008800C
:1003900042F62C41C4F201016420088042F600417B
:1003A000C4F20101088840F00100088042F62041B3
:1003B000C4F20101088841F201021043088042F6AC
:1003C0001841C4F20101088840F06000088042F63C
:1003D0001C41C4F20101088840F4C040088042F684
:1003E0004441C4F20101088840F40040088004211F
:1003F000C4F20101086820F0C000086042F63441F0
:10040000C4F201013220088042F64041C4F20101E9
:100410000880704780B586B0059040F60001C4F2B0
:1004200001010091086840F03330086040F60C018B
:10043000C4F2010108684FF0FF3008600C2000F0A2
:1004400051F900990868002001900860086840F0A0
:1004500088300860062000F029F901980490039084
:100460000290FFE7029807282CDCFFE740F608001F
:10047000C4F2010000680299C840C00780B1FFE7DC
:100480000599029A012041F82200029940F21800D1
:10049000C2F2000050F8211003980844039005E0D0
:1004A0000599029A002041F82200FFE70498059977
:1004B000029A51F8221008440490FFE70298013094
:1004C0000290CFE70398049990FBF1F006B080BD4D
:1004D00080B500F001F880BD84B000200390029048
:1004E00041F20001C4F20201086840F48030086063
:1004F000FFE741F20000C4F20200006800F400309F
:100500000290039801300390FFE7029900200190C8
:1005100039B9FFE70398B0F5A06018BF012001903A
:10052000FFE70198C0070028E3D1FFE741F2000090
:10053000C4F2020000688003002803D5FFE7012011
:10054000029002E000200290FFE70298012851D1BA
:10055000FFE742F20001C4F20201086840F0100017
:100560000860086820F007000860086840F0020092
:10057000086041F20401C4F20201009108680860B9
:1005800008680860086840F480600860086820F423
:100590007C100860086840F4E810086041F200012F
:1005A000C4F20201086840F080700860FFE741F281
:1005B0000000C4F2020000688001002801D4FFE7B7
:1005C000F5E741F20401C4F20201086820F00300DB
:1005D0000860086840F002000860FFE741F204008C
:1005E000C4F20200006800F00C00082801D0FFE708
:1005F000F4E700E0FFE704B07047000080B541F287
:100600000002C4F20202106840F00100106041F2E2
:100610000401C4F2020108680023CFF6FF0318406A
:10062000086010684FF6FF73CFF6F663184010604D
:10063000106820F480201060086820F4FE00086034
:1006400041F20801C4F202014FF41F000860FFF7F5
:100650003FFF4EF60851CEF200014FF000600860F7
:1006600080BD000041F21C01C4F20201086840F0A4
:10067000010008602C21C4F200014FF6FE700880D2
:100680002821C4F20001472008804FF080410888EB
:1006900040F001000880FFE71020C4F2000000884D
:1006A000C00708B9FFE7F7E77047000080B582B0E0
:1006B000ADF806000020ADF80400FFE7BDF8040027
:1006C000BDF8061088420BDAFFE74FF47A7000F0AD
:1006D00009F8FFE7BDF804000130ADF80400EDE7CC
:1006E00002B080BD81B0ADF802002421C4F2000147
:1006F00000200880FFE72420C4F200000088BDF835
:100700000210884201DAFFE7F5E701B07047000008
:1007100080B59EB0002009901D90FFF70DFEFFF7F9
:1007200091FDFFF79FFFFFF7A1FD09981C901B901B
:100730001A901990179016901590FFE70DA8FFF7E3
:1007400069FE0C9001208DF82F0000200A90FFE731
:100750000A98072810DCFFE70A990DA850F8210035
:10076000012804D1FFE700208DF82F0004E0FFE707
:100770000A9801300A90EBE79DF82F00C007F8B106
:10078000FFE71B9800EB400080001C901C984FF680
:100790002321CFF6FF71884206DCFFE74FF62420C5
:1007A000CFF6FF701C900AE01C9840F2DD518842A1
:1007B00004DBFFE740F2DC501C90FFE7FFE702E0BC
:1007C0000C981C90FFE71C981A901C981B99401AD3
:1007D00019901C9A16991798891840EBE270169197
:1007E00017901C981B901A9800F045F903900491FB
:1007F00040F21000C2F200000168019140680290CE
:10080000199800F038F940F20003C2F200031A68A8
:100810005B6800F099F9019A029B84460398CDF831
:1008200014C08C460499CDF818C000F08DF9059AD3
:10083000069B00F049F8079008911698179900F068
:1008400031F940F20803C2F200031A685B6800F055
:100850007BF9079A089B00F037F800F0DDF8159057
:100860001598562803DBFFE75520159009E01598E9
:1008700010F1560F04DCFFE76FF054001590FFE70E
:10088000FFE71598B0F1FF3F0EDCFFE715985530F4
:1008900042F63441C4F20101088042F64041C4F2FC
:1008A0000101552008800EE042F63441C4F20101F6
:1008B000552008801598C0F1550042F64041C4F219
:1008C00001010880FFE739E710B591EA030F48BF3F
:1008D00083F0004300F13E82841A71EB030C05D2D1
:1008E000121943EB0C03001B61EB0C014FEA11548E
:1008F000A4EB135CDFF81CE11EEA430F18BF9EEA6D
:10090000445F00F0748021EA045123EA0E0343F4AB
:100910008013DCF1200E32D322FA0CFE10EB0E0015
:1009200023FA0CFE41EB0E01CCF1200E03FA0EFE71
:1009300010EB0E00CCF1200E51F10001B1F5801F3B
:1009400032D201EB045112FA0EF2BDE8104058BF4A
:100950007047401C38BF5FEA420218BF704700284A
:1009600014BF20F0010041F100014FEA410313F5EB
:10097000001F38BF7047A1F1C04100F0DDB9012A66
:1009800043EB0302ACF1200CDCF11F0E32BF4FF041
:10099000000E23FA0CF310EB030041EB0451B4EB0F
:1009A000115FD0D0A1EB045101F58011490801EB92
:1009B00004515FEA30000ED350F1000038BF12FA44
:1009C0000EFE08D1BDE81040C9E7401C38BF5FEA01
:1009D0004202CAD1C3E7BDE810404FEA410313F514
:1009E000001F38BF7047A1F1C04100F0A5B99EEAD1
:1009F000445F08D011EA5E0FBDE8104004BF01F06B
:100A0000004100207047BDE8104070B500F046F985
:100A100064FBBE3E0000E0FF4FEA41034FEA535340
:100A2000A3F58063D3F11E03C8BFD3F1210C0CDD05
:100A30004FF0004242EAC12242EA505232FA03FC2D
:100A40008CEAE17CACEBE1707047102BC4BF002056
:100A5000704703F5787CBCF1FF3F04D06FF0004293
:100A600082EA2100704770B500F018F9499224809D
:100A700000207047F2E710F0004248BF4042B0FA51
:100A800080F310FA03F10AD0C3F11D0303F580636C
:100A900002EB03524FEA415002EBD12170474FF075
:100AA000000070477FEAE17202D1101A62EB010187
:100AB000B1FA81F30B3B24D3994012D1B0FA80F301
:100AC00010FA03F108BF7047C3F11D0303F540633B
:100AD00003EBC2234FEAD1224FEA415002EB03510C
:100AE0007047C3F1200C20FA0CFC41EA0C0198403D
:100AF000C3F1320303F5406303EBC22301EB03515F
:100B00007047C3F1320C0CF5406C0CEBC22210B5EF
:100B1000C3F10004C4F1200E01FA0EFC21FA04F125
:100B200000FA0EF3E04040EA0C00BDE8104001EB93
:100B3000025138BF7047401C41F100015B0008BF03
:100B400020F001007047000070B5DFF848C11CEAD2
:100B5000111E1EBF1CEA13159EEA0C0F95EA0C0F1E
:100B600000F06F8081EA03044EEAD47EAE4421EAAD
:100B70004C1123EA4C1341F4801143F48013AEF17D
:100B80007F7EA1FB024CA0FB0365361955EB0C05DB
:100B9000A1FB034C4CF10003A0FB021C16EB0C065E
:100BA000654153F10003094218BF46F0010613F4F2
:100BB000007F0BD14FEA03314FEA053041EA15516E
:100BC00040EA165034036FF003020AE04FEAC321F3
:100BD0004FEAC52041EA555140EA5650F4026FF001
:100BE000020202EB2E4201EB025585EACE710AD0D9
:100BF0005FEA440C18BF24F0004450F1000041F1BA
:100C0000000120EAD47040F2FE7C624500D270BD43
:100C1000A84214BF4FF080444FF04044002E08BF5C
:100C20000024BEF1806FA8BFA1F1C041BDE87040B3
:100C300080F2828001F1C04101F000414FF00000DC
:100C400070470CEA13159EEA0C0F18BF95EA0C0FBB
:100C500006D081EA030E4FF000000EF0004170BD97
:100C600000F01CF88900013E00F007B800F009B858
:100C70004FEA430C5FEA5C5C08D081EA030100F0B4
:100C80005BB84FEA410C5FEA5C5CF6D102494FF079
:100C9000000070470000FF070000F87F0EF1020E11
:100CA0002EF0030E5EF8046B364205D4012A43EBA6
:100CB000030515F5001F12D8012841EB010C1CF5A6
:100CC000001F0CD80ED14FEAD17C0CEB4C0C0CF170
:100CD000020C15F5001F08BF4CEBD37C04E04FF06D
:100CE000080C01E04FEAD37C0CEB4C0526FA05F624
:100CF00006F00706B6F1040C06D20EEB860CBDE832
:100D000070404CF0010C6047DFE80CF0090B020268
:100D10004FF00041A1F500214FF0000070BD1946D1
:100D20001046012851EB010418BFD4F5001484BF0C
:100D3000002001F0004170BD0808A0F500114FEA45
:100D40003101704710B591EA030F48BF83F00043AB
:100D50003FF5C2AD841A71EB030C07D28CF0004C46
:100D6000121943EB0C03001B61EB0C014FEA115409
:100D7000A4EB135CDFF8A4E11EEA430F18BF9EEA60
:100D8000445F00F0B48021EA045123EA6E0352422A
:100D9000C3EB6E0338BF5B1EDCF1200E25D322FAB5
:100DA0000CFE10EB0E0043FA0CFE41EB0E01CCF1F1
:100DB000200E03FA0EFE10EB0E00CCF1200E51F1C6
:100DC000000129D401EB045112FA0EF2BDE81040E3
:100DD00058BF7047401C1CBFB2F1004F704700283D
:100DE0000CBF491C20F00100704712EB020E43EBD0
:100DF000030218BF4FF0010E4EEA4202ACF1200C84
:100E0000DCF11E0E56D943FA0CFE10EB0E00CCF1AD
:100E10001E0E51F1FF31D5D50EF1010E12FA0EFE64
:100E2000404141EB010101EB445C5FEA5C5C10D99D
:100E300001EB045110EBDE7038BFBEF1004FBDE88E
:100E4000104018BF704700280CBF491C20F001005B
:100E5000704734D24FEAD42C24F4006411F5001109
:100E60001BD0B1FA81F20B3AA41AA41ED2F12003CE
:100E7000914030FA03F31943904001EBCC7101EB40
:100E80000451002CBDE81040A8BF704701F1C041DB
:100E900001F000414FF000007047B0FA80F310FA03
:100EA00003F102D1BDE810407047E41A173C480531
:100EB000C90AE2E701EB0451BDE810407047491050
:100EC0004FEA300001EB0451BDE8104002E04FF062
:100ED000000170474A0008BF0042F8D0B2F5001F79
:100EE00028BF704701F000414FF0000070479EEAB4
:100EF000445F07D011EA5E0FBDE8104004BF002137
:100F000000207047BDE8104070B5FFF7C7FE00BF76
:100F100040DFF63E104683F0004170470000E0FFDE
:100F2000400F0008000000203800000028010008E1
:100F3000780F000838000020600600004401000817
:100F40006F8104C58F311840613255302AA9233F83
:100F5000C5FEB27BF2300B40ECFFFFFFF1FFFFFF5D
:100F6000F6FFFFFFFBFFFFFF050000000A00000087
:080F70000F0000001400000056
:040000050800018965
:00000001FF
